{
  "_format": "hh-sol-artifact-1",
  "contractName": "HelloWorld",
  "sourceName": "contracts/HelloWorld.sol",
  "abi": [
    {
      "inputs": [
        {
          "internalType": "string",
          "name": "initMessage",
          "type": "string"
        }
      ],
      "stateMutability": "nonpayable",
      "type": "constructor"
    },
    {
      "inputs": [],
      "name": "message",
      "outputs": [
        {
          "internalType": "string",
          "name": "",
          "type": "string"
        }
      ],
      "stateMutability": "view",
      "type": "function"
    },
    {
      "inputs": [
        {
          "internalType": "string",
          "name": "newMessage",
          "type": "string"
        }
      ],
      "name": "update",
      "outputs": [],
      "stateMutability": "nonpayable",
      "type": "function"
    }
  ],
  "bytecode": "0x608060405234801561001057600080fd5b5060405161057a38038061057a83398101604081905261002f91610111565b8051610042906000906020840190610049565b5050610233565b828054610055906101e0565b90600052602060002090601f01602090048101928261007757600085556100bd565b82601f1061009057805160ff19168380011785556100bd565b828001600101855582156100bd579182015b828111156100bd5782518255916020019190600101906100a2565b506100c99291506100cd565b5090565b5b808211156100c957600081556001016100ce565b7f4e487b7100000000000000000000000000000000000000000000000000000000600052604160045260246000fd5b6000602080838503121561012457600080fd5b82516001600160401b038082111561013b57600080fd5b818501915085601f83011261014f57600080fd5b815181811115610161576101616100e2565b604051601f8201601f19908116603f01168101908382118183101715610189576101896100e2565b8160405282815288868487010111156101a157600080fd5b600093505b828410156101c357848401860151818501870152928501926101a6565b828411156101d45760008684830101525b98975050505050505050565b600181811c908216806101f457607f821691505b60208210810361022d577f4e487b7100000000000000000000000000000000000000000000000000000000600052602260045260246000fd5b50919050565b610338806102426000396000f3fe608060405234801561001057600080fd5b50600436106100365760003560e01c80633d7403a31461003b578063e21f37ce14610050575b600080fd5b61004e6100493660046101c2565b61006e565b005b610058610085565b6040516100659190610273565b60405180910390f35b8051610081906000906020840190610113565b5050565b60008054610092906102c8565b80601f01602080910402602001604051908101604052809291908181526020018280546100be906102c8565b801561010b5780601f106100e05761010080835404028352916020019161010b565b820191906000526020600020905b8154815290600101906020018083116100ee57829003601f168201915b505050505081565b82805461011f906102c8565b90600052602060002090601f0160209004810192826101415760008555610187565b82601f1061015a57805160ff1916838001178555610187565b82800160010185558215610187579182015b8281111561018757825182559160200191906001019061016c565b50610193929150610197565b5090565b5b808211156101935760008155600101610198565b634e487b7160e01b600052604160045260246000fd5b6000602082840312156101d457600080fd5b813567ffffffffffffffff808211156101ec57600080fd5b818401915084601f83011261020057600080fd5b813581811115610212576102126101ac565b604051601f8201601f19908116603f0116810190838211818310171561023a5761023a6101ac565b8160405282815287602084870101111561025357600080fd5b826020860160208301376000928101602001929092525095945050505050565b600060208083528351808285015260005b818110156102a057858101830151858201604001528201610284565b818111156102b2576000604083870101525b50601f01601f1916929092016040019392505050565b600181811c908216806102dc57607f821691505b6020821081036102fc57634e487b7160e01b600052602260045260246000fd5b5091905056fea26469706673582212204df38926e62b240d5dad6ba00f1be8043f3f53ba2416f21bb2e3131b3216244d64736f6c634300080d0033",
  "linkReferences": {},
  "deployedLinkReferences": {}
}